:020000040800F2
:100000000050002059060008FD05000803060008FE
:10001000090600080F060008150600080000000089
:100020000000000000000000000000001B060008A7
:100030002706000800000000330600083F060008FD
:10004000A1060008A1060008A1060008A1060008F4
:10005000A1060008A1060008A1060008A1060008E4
:10006000A1060008A1060008A1060008A1060008D4
:10007000A1060008A1060008A1060008A1060008C4
:10008000A1060008A1060008A1060008A1060008B4
:10009000A1060008A1060008A1060008A1060008A4
:1000A000A1060008A1060008A1060008A106000894
:1000B000A1060008A1060008A1060008A106000884
:1000C000A1060008A1060008A1060008A106000874
:1000D000A1060008A1060008A1060008A106000864
:1000E000A1060008A1060008A10600080000000003
:1000F0000000000000000000000000000000000000
:0C01000000000000000000005FF808F1A3
:10010C0010B5054C237833B9044B13B10448AFF345
:10011C0000800123237010BD0400002000000000AB
:10012C009409000808B5034B1BB103490348AFF30E
:10013C00008008BD000000000800002094090008A1
:10014C0080B485B000AF78607B6803F00703FB6078
:10015C000C4BDB68BB60BA684FF6FF031340BB6007
:10016C00FB681A02BB68134343F0BF6343F40033CC
:10017C00BB60044ABB68D36000BF1437BD4680BC6B
:10018C00704700BF00ED00E080B400AF044BDB68AB
:10019C001B0A03F007031846BD4680BC704700BF1E
:1001AC0000ED00E080B483B000AF03463960FB7112
:1001BC0097F90730002B0ADB3B68DAB20C4997F948
:1001CC0007301201D2B20B4483F800230AE03B68DB
:1001DC00DAB20849FB7903F00F03043B1201D2B2E7
:1001EC000B441A7600BF0C37BD4680BC704700BF6D
:1001FC0000E100E000ED00E080B489B000AFF860F1
:10020C00B9607A60FB6803F00703FB61FB69C3F11B
:10021C000703042B28BF0423BB61FB690433062BA3
:10022C0002D9FB69033B00E000237B614FF0FF32F6
:10023C00BB6902FA03F3DA43BB681A407B699A4044
:10024C004FF0FF317B6901FA03F3D9437B680B4014
:10025C00134318462437BD4680BC704780B400AFAA
:10026C00044B1B68034A43F00103136000BFBD46F7
:10027C0080BC70470010024080B400AF064B1B6876
:10028C0003F00203022B0CBF01230023DBB2184640
:10029C00BD4680BC704700BF0010024080B483B0E4
:1002AC0000AF7860064B1B6823F0F8027B68DB001C
:1002BC00034913430B6000BF0C37BD4680BC70472D
:1002CC000010024080B483B000AF7860064B5B68CE
:1002DC0023F0030204497B6813434B6000BF0C37C7
:1002EC00BD4680BC704700BF0010024080B400AF18
:1002FC00034B5B6803F00C031846BD4680BC70478B
:10030C000010024080B483B000AF7860064B5B688D
:10031C0023F0F00204497B6813434B6000BF0C3799
:10032C00BD4680BC704700BF0010024080B483B053
:10033C0000AF7860064B5B6823F4E06204497B688D
:10034C0013434B6000BF0C37BD4680BC704700BFE9
:10035C000010024080B483B000AF7860064B5B683D
:10036C0023F4605204497B6813434B6000BF0C3785
:10037C00BD4680BC704700BF0010024080B485B001
:10038C0000AF7860084BDA6907497B681343CB618F
:10039C00054BDA697B681340FB60FB6800BF1437C0
:1003AC00BD4680BC704700BF0010024080B485B0D1
:1003BC0000AF7860084B9A6907497B6813438B61DF
:1003CC00054B9A697B681340FB60FB6800BF1437D0
:1003DC00BD4680BC704700BF0010024080B483B0A3
:1003EC0000AF7860064B1B6823F0070204497B685A
:1003FC0013430B6000BF0C37BD4680BC704700BF79
:10040C000020024080B400AF034B1B6803F00703CD
:10041C001846BD4680BC70470020024080B483B0B3
:10042C0000AF786039603B681B0A9AB27B681A612E
:10043C0000BF0C37BD4680BC704780B483B000AFA2
:10044C00786039603B681B0A9AB27B685A6100BFBE
:10045C000C37BD4680BC704780B400AF054B5B6861
:10046C0023F0E063034A43F00073536000BFBD46C2
:10047C0080BC70470000014080B500AF0120FFF741
:10048C0095FF4FF08050FFF779FF0320FFF758FEE0
:10049C00FFF77AFE034600220F211846FFF7ACFE49
:1004AC00034619464FF0FF30FFF77CFEFFF7D4FFF1
:1004BC0000F00CF800F072F800F03AF841F210017C
:1004CC000148FFF7ABFFF9E70008014080B500AF2A
:1004DC000020FFF783FF00BFFFF794FF0346002BBC
:1004EC00FAD11020FFF7DAFEFFF7B8FE00BFFFF7D6
:1004FC00C3FE0346012BFAD10020FFF703FF0020B7
:10050C00FFF714FF0020FFF725FF0020FFF7DAFEAE
:10051C0000BFFFF7EBFE0346002BFAD1034800F0B7
:10052C00F3F9024800F0FEF900BF80BD00127A001A
:10053C0080B400AF164B9B69154A43F0FC039361E2
:10054C00134BDB69124A43F00103D361114B124A7E
:10055C001A604FF0804340F237129A634FF0804399
:10056C0010221A624FF080434FF4C0429A614FF050
:10057C00804340F2E142DA624FF080433F229A62BC
:10058C004FF0804301221A6000BFBD4680BC70470B
:10059C000010024000080140B444444480B586B0C9
:1005AC0000AF3B1D00221A605A609A60DA601A6133
:1005BC002020FFF7FBFE0420FFF7F8FE41F21001AC
:1005CC000A48FFF73AFF41F210037B600123BB603E
:1005DC000223FB6000233B613B1D1946034800F0DE
:1005EC0012F900BF1837BD4680BD00BF000801409E
:1005FC0080B400AFFEE780B400AFFEE780B400AF7C
:10060C00FEE780B400AFFEE780B400AFFEE780B435
:10061C0000AF00BFBD4680BC704780B400AF00BFC8
:10062C00BD4680BC704780B400AF00BFBD4680BCE7
:10063C00704780B400AF00BFBD4680BC704780B42B
:10064C0000AF00BFBD4680BC70470000FFF7F7FF4E
:10065C000B480C490C4A002302E0D458C450043314
:10066C00C4188C42F9D3094A094C002301E01360E9
:10067C000432A242FBD300F063F9FFF7FDFE704792
:10068C000000002004000020B40900080400002031
:10069C0020000020FEE790B488B000AFF860B9608D
:1006AC007A60FB681A46BB681B0E13441C46226812
:1006BC00BB687B617B6993FAA3F33B613B69B3FA3B
:1006CC0083F3DBB29B000F2101FA03F3DB431A40E7
:1006DC00BB68FB61FB6993FAA3F3BB61BB69B3FA1B
:1006EC0083F3DBB29B00796801FA03F313432360B5
:1006FC0000BF2037BD4690BC704790B488B000AFA7
:10070C00F860B9607A60FB681A46BB681B0E13442C
:10071C001C462268BB687B617B6993FAA3F33B613F
:10072C003B69B3FA83F3DBB29B00032101FA03F3B9
:10073C00DB431A40BB68FB61FB6993FAA3F3BB6113
:10074C00BB69B3FA83F3DBB29B00796801FA03F35C
:10075C001343236000BF2037BD4690BC704790B454
:10076C0088B000AFF860B9607A60FB681A46BB6865
:10077C001B0E13441C462268BB687B617B6993FA91
:10078C00A3F33B613B69B3FA83F3DBB29B00042117
:10079C0001FA03F3DB431A40BB68FB61FB6993FA74
:1007AC00A3F3BB61BB69B3FA83F3DBB29B0079683B
:1007BC0001FA03F31343236000BF2037BD4690BCFE
:1007CC00704780B487B000AFF860B9607A60FB689E
:1007DC00DA68BB681B0ADB431A40BB681B0A7B61E7
:1007EC007B6993FAA3F33B613B69B3FA83F3DBB206
:1007FC0019467B688B401A43FB68DA6000BF1C37D4
:10080C00BD4680BC704780B588B000AF7860396059
:10081C003B681B681B021B0C7B617B693B613B6962
:10082C0093FAA3F3FB60FB68B3FA83F3DBB2FB61CF
:10083C0044E00122FB699A407B691340002B3AD0BB
:10084C00FB69072B06D840F20112FB6902FA03F38D
:10085C00BB6108E0FB69083B4FF0011202FA03F39D
:10086C0043F08063BB613B685B68082B06D13B6837
:10087C001B691A46B9697868FFF7A3FF3B685B6888
:10088C001A46B9697868FFF706FF3B685B68012B6D
:10089C0003D03B685B68092B0DD13B689B681A46FB
:1008AC00B9697868FFF729FF3B68DB681A46B969B4
:1008BC007868FFF754FFFB690133FB617A69FB69C8
:1008CC0022FA03F3002BB4D1002318462037BD467F
:1008DC0080BD000080B483B000AF786039607A6866
:1008EC003B68B2FBF3F3074A013B5360054B002214
:1008FC009A60044B05221A6000BF0C37BD4680BCC1
:10090C00704700BF10E000E080B582B000AF7860A7
:10091C004FF47A717868FFF7DDFF00BF0837BD46EA
:10092C0080BD000080B483B000AF7860034A7B6860
:10093C00136000BF0C37BD4680BC70470000002020
:10094C0070B500260C4D0D4C641BA410A64209D1A9
:10095C0000F01AF800260A4D0A4C641BA410A6429B
:10096C0005D170BD55F8043B98470136EEE755F8B4
:10097C00043B98470136F2E7AC090008AC090008C3
:10098C00AC090008B0090008F8B500BFF8BC08BCF9
:10099C009E467047F8B500BFF8BC08BC9E46704731
:0409AC00310100080D
:0409B0000D0100082D
:0409B4000024F40027
:040000050800065990
:00000001FF
